{
  "contractName": "Collectible",
  "abi": [
    {
      "inputs": [],
      "stateMutability": "nonpayable",
      "type": "constructor"
    },
    {
      "anonymous": false,
      "inputs": [
        {
          "indexed": true,
          "internalType": "address",
          "name": "owner",
          "type": "address"
        },
        {
          "indexed": true,
          "internalType": "address",
          "name": "approved",
          "type": "address"
        },
        {
          "indexed": true,
          "internalType": "uint256",
          "name": "tokenId",
          "type": "uint256"
        }
      ],
      "name": "Approval",
      "type": "event"
    },
    {
      "anonymous": false,
      "inputs": [
        {
          "indexed": true,
          "internalType": "address",
          "name": "owner",
          "type": "address"
        },
        {
          "indexed": true,
          "internalType": "address",
          "name": "operator",
          "type": "address"
        },
        {
          "indexed": false,
          "internalType": "bool",
          "name": "approved",
          "type": "bool"
        }
      ],
      "name": "ApprovalForAll",
      "type": "event"
    },
    {
      "anonymous": false,
      "inputs": [
        {
          "indexed": false,
          "internalType": "uint256",
          "name": "tokenId",
          "type": "uint256"
        },
        {
          "indexed": false,
          "internalType": "address",
          "name": "creator",
          "type": "address"
        },
        {
          "indexed": false,
          "internalType": "string",
          "name": "metadata",
          "type": "string"
        },
        {
          "indexed": false,
          "internalType": "uint256",
          "name": "royalty",
          "type": "uint256"
        }
      ],
      "name": "ItemMinted",
      "type": "event"
    },
    {
      "anonymous": false,
      "inputs": [
        {
          "indexed": true,
          "internalType": "address",
          "name": "from",
          "type": "address"
        },
        {
          "indexed": true,
          "internalType": "address",
          "name": "to",
          "type": "address"
        },
        {
          "indexed": true,
          "internalType": "uint256",
          "name": "tokenId",
          "type": "uint256"
        }
      ],
      "name": "Transfer",
      "type": "event"
    },
    {
      "inputs": [
        {
          "internalType": "address",
          "name": "to",
          "type": "address"
        },
        {
          "internalType": "uint256",
          "name": "tokenId",
          "type": "uint256"
        }
      ],
      "name": "approve",
      "outputs": [],
      "stateMutability": "nonpayable",
      "type": "function"
    },
    {
      "inputs": [
        {
          "internalType": "address",
          "name": "owner",
          "type": "address"
        }
      ],
      "name": "balanceOf",
      "outputs": [
        {
          "internalType": "uint256",
          "name": "",
          "type": "uint256"
        }
      ],
      "stateMutability": "view",
      "type": "function",
      "constant": true
    },
    {
      "inputs": [
        {
          "internalType": "uint256",
          "name": "tokenId",
          "type": "uint256"
        }
      ],
      "name": "getApproved",
      "outputs": [
        {
          "internalType": "address",
          "name": "",
          "type": "address"
        }
      ],
      "stateMutability": "view",
      "type": "function",
      "constant": true
    },
    {
      "inputs": [
        {
          "internalType": "string",
          "name": "",
          "type": "string"
        }
      ],
      "name": "hasBeenMinted",
      "outputs": [
        {
          "internalType": "bool",
          "name": "",
          "type": "bool"
        }
      ],
      "stateMutability": "view",
      "type": "function",
      "constant": true
    },
    {
      "inputs": [
        {
          "internalType": "address",
          "name": "owner",
          "type": "address"
        },
        {
          "internalType": "address",
          "name": "operator",
          "type": "address"
        }
      ],
      "name": "isApprovedForAll",
      "outputs": [
        {
          "internalType": "bool",
          "name": "",
          "type": "bool"
        }
      ],
      "stateMutability": "view",
      "type": "function",
      "constant": true
    },
    {
      "inputs": [],
      "name": "name",
      "outputs": [
        {
          "internalType": "string",
          "name": "",
          "type": "string"
        }
      ],
      "stateMutability": "view",
      "type": "function",
      "constant": true
    },
    {
      "inputs": [
        {
          "internalType": "uint256",
          "name": "tokenId",
          "type": "uint256"
        }
      ],
      "name": "ownerOf",
      "outputs": [
        {
          "internalType": "address",
          "name": "",
          "type": "address"
        }
      ],
      "stateMutability": "view",
      "type": "function",
      "constant": true
    },
    {
      "inputs": [
        {
          "internalType": "address",
          "name": "from",
          "type": "address"
        },
        {
          "internalType": "address",
          "name": "to",
          "type": "address"
        },
        {
          "internalType": "uint256",
          "name": "tokenId",
          "type": "uint256"
        }
      ],
      "name": "safeTransferFrom",
      "outputs": [],
      "stateMutability": "nonpayable",
      "type": "function"
    },
    {
      "inputs": [
        {
          "internalType": "address",
          "name": "from",
          "type": "address"
        },
        {
          "internalType": "address",
          "name": "to",
          "type": "address"
        },
        {
          "internalType": "uint256",
          "name": "tokenId",
          "type": "uint256"
        },
        {
          "internalType": "bytes",
          "name": "data",
          "type": "bytes"
        }
      ],
      "name": "safeTransferFrom",
      "outputs": [],
      "stateMutability": "nonpayable",
      "type": "function"
    },
    {
      "inputs": [
        {
          "internalType": "address",
          "name": "operator",
          "type": "address"
        },
        {
          "internalType": "bool",
          "name": "approved",
          "type": "bool"
        }
      ],
      "name": "setApprovalForAll",
      "outputs": [],
      "stateMutability": "nonpayable",
      "type": "function"
    },
    {
      "inputs": [
        {
          "internalType": "bytes4",
          "name": "interfaceId",
          "type": "bytes4"
        }
      ],
      "name": "supportsInterface",
      "outputs": [
        {
          "internalType": "bool",
          "name": "",
          "type": "bool"
        }
      ],
      "stateMutability": "view",
      "type": "function",
      "constant": true
    },
    {
      "inputs": [],
      "name": "symbol",
      "outputs": [
        {
          "internalType": "string",
          "name": "",
          "type": "string"
        }
      ],
      "stateMutability": "view",
      "type": "function",
      "constant": true
    },
    {
      "inputs": [
        {
          "internalType": "uint256",
          "name": "",
          "type": "uint256"
        }
      ],
      "name": "tokenIdToItem",
      "outputs": [
        {
          "internalType": "address",
          "name": "owner",
          "type": "address"
        },
        {
          "internalType": "address",
          "name": "creator",
          "type": "address"
        },
        {
          "internalType": "uint256",
          "name": "royalty",
          "type": "uint256"
        }
      ],
      "stateMutability": "view",
      "type": "function",
      "constant": true
    },
    {
      "inputs": [
        {
          "internalType": "uint256",
          "name": "tokenId",
          "type": "uint256"
        }
      ],
      "name": "tokenURI",
      "outputs": [
        {
          "internalType": "string",
          "name": "",
          "type": "string"
        }
      ],
      "stateMutability": "view",
      "type": "function",
      "constant": true
    },
    {
      "inputs": [
        {
          "internalType": "address",
          "name": "from",
          "type": "address"
        },
        {
          "internalType": "address",
          "name": "to",
          "type": "address"
        },
        {
          "internalType": "uint256",
          "name": "tokenId",
          "type": "uint256"
        }
      ],
      "name": "transferFrom",
      "outputs": [],
      "stateMutability": "nonpayable",
      "type": "function"
    },
    {
      "inputs": [
        {
          "internalType": "string",
          "name": "metadata",
          "type": "string"
        },
        {
          "internalType": "uint256",
          "name": "royalty",
          "type": "uint256"
        }
      ],
      "name": "createCollectible",
      "outputs": [
        {
          "internalType": "uint256",
          "name": "",
          "type": "uint256"
        }
      ],
      "stateMutability": "nonpayable",
      "type": "function"
    },
    {
      "inputs": [],
      "name": "getItemsLength",
      "outputs": [
        {
          "internalType": "uint256",
          "name": "",
          "type": "uint256"
        }
      ],
      "stateMutability": "view",
      "type": "function",
      "constant": true
    },
    {
      "inputs": [
        {
          "internalType": "uint256",
          "name": "tokenId",
          "type": "uint256"
        }
      ],
      "name": "getItem",
      "outputs": [
        {
          "internalType": "address",
          "name": "",
          "type": "address"
        },
        {
          "internalType": "address",
          "name": "",
          "type": "address"
        },
        {
          "internalType": "uint256",
          "name": "",
          "type": "uint256"
        }
      ],
      "stateMutability": "view",
      "type": "function",
      "constant": true
    }
  ],
  "bytecode": "0x60806040523480156200001157600080fd5b506040518060400160405280600581526020017f4d794e46540000000000000000000000000000000000000000000000000000008152506040518060400160405280600481526020017f4d4e465400000000000000000000000000000000000000000000000000000000815250816000908051906020019062000096929190620000b8565b508060019080519060200190620000af929190620000b8565b505050620001cd565b828054620000c69062000168565b90600052602060002090601f016020900481019282620000ea576000855562000136565b82601f106200010557805160ff191683800117855562000136565b8280016001018555821562000136579182015b828111156200013557825182559160200191906001019062000118565b5b50905062000145919062000149565b5090565b5b80821115620001645760008160009055506001016200014a565b5090565b600060028204905060018216806200018157607f821691505b602082108114156200019857620001976200019e565b5b50919050565b7f4e487b7100000000000000000000000000000000000000000000000000000000600052602260045260246000fd5b61300180620001dd6000396000f3fe608060405234801561001057600080fd5b50600436106101165760003560e01c80635d36a364116100a2578063a22cb46511610071578063a22cb4651461031d578063b10d782414610339578063b88d4fde14610369578063c87b56dd14610385578063e985e9c5146103b557610116565b80635d36a3641461026d5780636352211e1461029f57806370a08231146102cf57806395d89b41146102ff57610116565b8063194f4795116100e9578063194f4795146101b55780631f061a29146101d357806323b872dd146102035780633129e7731461021f57806342842e0e1461025157610116565b806301ffc9a71461011b57806306fdde031461014b578063081812fc14610169578063095ea7b314610199575b600080fd5b610135600480360381019061013091906121fd565b6103e5565b60405161014291906126bc565b60405180910390f35b6101536104c7565b60405161016091906126d7565b60405180910390f35b610183600480360381019061017e91906122fc565b610559565b604051610190919061261e565b60405180910390f35b6101b360048036038101906101ae91906121bd565b61059f565b005b6101bd6106b7565b6040516101ca91906128b9565b60405180910390f35b6101ed60048036038101906101e891906122a0565b6106c4565b6040516101fa91906128b9565b60405180910390f35b61021d600480360381019061021891906120a7565b6109e0565b005b610239600480360381019061023491906122fc565b610a40565b60405161024893929190612639565b60405180910390f35b61026b600480360381019061026691906120a7565b610ad7565b005b610287600480360381019061028291906122fc565b610af7565b60405161029693929190612639565b60405180910390f35b6102b960048036038101906102b491906122fc565b610b61565b6040516102c6919061261e565b60405180910390f35b6102e960048036038101906102e4919061203a565b610be8565b6040516102f691906128b9565b60405180910390f35b610307610ca0565b60405161031491906126d7565b60405180910390f35b6103376004803603810190610332919061217d565b610d32565b005b610353600480360381019061034e9190612257565b610d48565b60405161036091906126bc565b60405180910390f35b610383600480360381019061037e91906120fa565b610d7e565b005b61039f600480360381019061039a91906122fc565b610de0565b6040516103ac91906126d7565b60405180910390f35b6103cf60048036038101906103ca9190612067565b610ef3565b6040516103dc91906126bc565b60405180910390f35b60007f80ac58cd000000000000000000000000000000000000000000000000000000007bffffffffffffffffffffffffffffffffffffffffffffffffffffffff1916827bffffffffffffffffffffffffffffffffffffffffffffffffffffffff191614806104b057507f5b5e139f000000000000000000000000000000000000000000000000000000007bffffffffffffffffffffffffffffffffffffffffffffffffffffffff1916827bffffffffffffffffffffffffffffffffffffffffffffffffffffffff1916145b806104c057506104bf82610f87565b5b9050919050565b6060600080546104d690612aa0565b80601f016020809104026020016040519081016040528092919081815260200182805461050290612aa0565b801561054f5780601f106105245761010080835404028352916020019161054f565b820191906000526020600020905b81548152906001019060200180831161053257829003601f168201915b5050505050905090565b600061056482610ff1565b6004600083815260200190815260200160002060009054906101000a900473ffffffffffffffffffffffffffffffffffffffff169050919050565b60006105aa82610b61565b90508073ffffffffffffffffffffffffffffffffffffffff168373ffffffffffffffffffffffffffffffffffffffff16141561061b576040517f08c379a000000000000000000000000000000000000000000000000000000000815260040161061290612879565b60405180910390fd5b8073ffffffffffffffffffffffffffffffffffffffff1661063a61103c565b73ffffffffffffffffffffffffffffffffffffffff16148061066957506106688161066361103c565b610ef3565b5b6106a8576040517f08c379a000000000000000000000000000000000000000000000000000000000815260040161069f90612899565b60405180910390fd5b6106b28383611044565b505050565b6000600980549050905090565b60006007836040516106d691906125e3565b908152602001604051809103902060009054906101000a900460ff1615610732576040517f08c379a000000000000000000000000000000000000000000000000000000000815260040161072990612839565b60405180910390fd5b600a8210158015610744575060198211155b610783576040517f08c379a000000000000000000000000000000000000000000000000000000000815260040161077a906127b9565b60405180910390fd5b600060405180606001604052803373ffffffffffffffffffffffffffffffffffffffff1681526020013373ffffffffffffffffffffffffffffffffffffffff168152602001848152509050600981908060018154018082558091505060019003906000526020600020906003020160009091909190915060008201518160000160006101000a81548173ffffffffffffffffffffffffffffffffffffffff021916908373ffffffffffffffffffffffffffffffffffffffff16021790555060208201518160010160006101000a81548173ffffffffffffffffffffffffffffffffffffffff021916908373ffffffffffffffffffffffffffffffffffffffff160217905550604082015181600201555050600060098054905090506108a833826110fd565b6108b2818661111b565b816008600083815260200190815260200160002060008201518160000160006101000a81548173ffffffffffffffffffffffffffffffffffffffff021916908373ffffffffffffffffffffffffffffffffffffffff16021790555060208201518160010160006101000a81548173ffffffffffffffffffffffffffffffffffffffff021916908373ffffffffffffffffffffffffffffffffffffffff16021790555060408201518160020155905050600160078660405161097391906125e3565b908152602001604051809103902060006101000a81548160ff0219169083151502179055507facd3f0bb7315448676927177916d82d603042a661927f33e76f60c49da0f587f813387876040516109cd94939291906128d4565b60405180910390a1809250505092915050565b6109f16109eb61103c565b8261118f565b610a30576040517f08c379a0000000000000000000000000000000000000000000000000000000008152600401610a27906126f9565b60405180910390fd5b610a3b838383611224565b505050565b60008060006008600085815260200190815260200160002060000160009054906101000a900473ffffffffffffffffffffffffffffffffffffffff166008600086815260200190815260200160002060010160009054906101000a900473ffffffffffffffffffffffffffffffffffffffff1660086000878152602001908152602001600020600201549250925092509193909250565b610af283838360405180602001604052806000815250610d7e565b505050565b60086020528060005260406000206000915090508060000160009054906101000a900473ffffffffffffffffffffffffffffffffffffffff16908060010160009054906101000a900473ffffffffffffffffffffffffffffffffffffffff16908060020154905083565b600080610b6d8361151e565b9050600073ffffffffffffffffffffffffffffffffffffffff168173ffffffffffffffffffffffffffffffffffffffff161415610bdf576040517f08c379a0000000000000000000000000000000000000000000000000000000008152600401610bd690612859565b60405180910390fd5b80915050919050565b60008073ffffffffffffffffffffffffffffffffffffffff168273ffffffffffffffffffffffffffffffffffffffff161415610c59576040517f08c379a0000000000000000000000000000000000000000000000000000000008152600401610c50906127d9565b60405180910390fd5b600360008373ffffffffffffffffffffffffffffffffffffffff1673ffffffffffffffffffffffffffffffffffffffff168152602001908152602001600020549050919050565b606060018054610caf90612aa0565b80601f0160208091040260200160405190810160405280929190818152602001828054610cdb90612aa0565b8015610d285780601f10610cfd57610100808354040283529160200191610d28565b820191906000526020600020905b815481529060010190602001808311610d0b57829003601f168201915b5050505050905090565b610d44610d3d61103c565b838361155b565b5050565b6007818051602081018201805184825260208301602085012081835280955050505050506000915054906101000a900460ff1681565b610d8f610d8961103c565b8361118f565b610dce576040517f08c379a0000000000000000000000000000000000000000000000000000000008152600401610dc5906126f9565b60405180910390fd5b610dda848484846116c8565b50505050565b6060610deb82610ff1565b6000600660008481526020019081526020016000208054610e0b90612aa0565b80601f0160208091040260200160405190810160405280929190818152602001828054610e3790612aa0565b8015610e845780601f10610e5957610100808354040283529160200191610e84565b820191906000526020600020905b815481529060010190602001808311610e6757829003601f168201915b505050505090506000610e95611724565b9050600081511415610eab578192505050610eee565b600082511115610ee0578082604051602001610ec89291906125fa565b60405160208183030381529060405292505050610eee565b610ee98461173b565b925050505b919050565b6000600560008473ffffffffffffffffffffffffffffffffffffffff1673ffffffffffffffffffffffffffffffffffffffff16815260200190815260200160002060008373ffffffffffffffffffffffffffffffffffffffff1673ffffffffffffffffffffffffffffffffffffffff16815260200190815260200160002060009054906101000a900460ff16905092915050565b60007f01ffc9a7000000000000000000000000000000000000000000000000000000007bffffffffffffffffffffffffffffffffffffffffffffffffffffffff1916827bffffffffffffffffffffffffffffffffffffffffffffffffffffffff1916149050919050565b610ffa816117a3565b611039576040517f08c379a000000000000000000000000000000000000000000000000000000000815260040161103090612859565b60405180910390fd5b50565b600033905090565b816004600083815260200190815260200160002060006101000a81548173ffffffffffffffffffffffffffffffffffffffff021916908373ffffffffffffffffffffffffffffffffffffffff160217905550808273ffffffffffffffffffffffffffffffffffffffff166110b783610b61565b73ffffffffffffffffffffffffffffffffffffffff167f8c5be1e5ebec7d5bd14f71427d1e84f3dd0314c0f7b2291e5b200ac8c7c3b92560405160405180910390a45050565b6111178282604051806020016040528060008152506117e4565b5050565b611124826117a3565b611163576040517f08c379a000000000000000000000000000000000000000000000000000000000815260040161115a906127f9565b60405180910390fd5b8060066000848152602001908152602001600020908051906020019061118a929190611e4e565b505050565b60008061119b83610b61565b90508073ffffffffffffffffffffffffffffffffffffffff168473ffffffffffffffffffffffffffffffffffffffff1614806111dd57506111dc8185610ef3565b5b8061121b57508373ffffffffffffffffffffffffffffffffffffffff1661120384610559565b73ffffffffffffffffffffffffffffffffffffffff16145b91505092915050565b8273ffffffffffffffffffffffffffffffffffffffff1661124482610b61565b73ffffffffffffffffffffffffffffffffffffffff161461129a576040517f08c379a000000000000000000000000000000000000000000000000000000000815260040161129190612739565b60405180910390fd5b600073ffffffffffffffffffffffffffffffffffffffff168273ffffffffffffffffffffffffffffffffffffffff16141561130a576040517f08c379a000000000000000000000000000000000000000000000000000000000815260040161130190612779565b60405180910390fd5b611317838383600161183f565b8273ffffffffffffffffffffffffffffffffffffffff1661133782610b61565b73ffffffffffffffffffffffffffffffffffffffff161461138d576040517f08c379a000000000000000000000000000000000000000000000000000000000815260040161138490612739565b60405180910390fd5b6004600082815260200190815260200160002060006101000a81549073ffffffffffffffffffffffffffffffffffffffff02191690556001600360008573ffffffffffffffffffffffffffffffffffffffff1673ffffffffffffffffffffffffffffffffffffffff168152602001908152602001600020600082825403925050819055506001600360008473ffffffffffffffffffffffffffffffffffffffff1673ffffffffffffffffffffffffffffffffffffffff16815260200190815260200160002060008282540192505081905550816002600083815260200190815260200160002060006101000a81548173ffffffffffffffffffffffffffffffffffffffff021916908373ffffffffffffffffffffffffffffffffffffffff160217905550808273ffffffffffffffffffffffffffffffffffffffff168473ffffffffffffffffffffffffffffffffffffffff167fddf252ad1be2c89b69c2b068fc378daa952ba7f163c4a11628f55a4df523b3ef60405160405180910390a46115198383836001611845565b505050565b60006002600083815260200190815260200160002060009054906101000a900473ffffffffffffffffffffffffffffffffffffffff169050919050565b8173ffffffffffffffffffffffffffffffffffffffff168373ffffffffffffffffffffffffffffffffffffffff1614156115ca576040517f08c379a00000000000000000000000000000000000000000000000000000000081526004016115c190612799565b60405180910390fd5b80600560008573ffffffffffffffffffffffffffffffffffffffff1673ffffffffffffffffffffffffffffffffffffffff16815260200190815260200160002060008473ffffffffffffffffffffffffffffffffffffffff1673ffffffffffffffffffffffffffffffffffffffff16815260200190815260200160002060006101000a81548160ff0219169083151502179055508173ffffffffffffffffffffffffffffffffffffffff168373ffffffffffffffffffffffffffffffffffffffff167f17307eab39ab6107e8899845ad3d59bd9653f200f220920489ca2b5937696c31836040516116bb91906126bc565b60405180910390a3505050565b6116d3848484611224565b6116df8484848461184b565b61171e576040517f08c379a000000000000000000000000000000000000000000000000000000000815260040161171590612719565b60405180910390fd5b50505050565b606060405180602001604052806000815250905090565b606061174682610ff1565b6000611750611724565b90506000815111611770576040518060200160405280600081525061179b565b8061177a846119e2565b60405160200161178b9291906125fa565b6040516020818303038152906040525b915050919050565b60008073ffffffffffffffffffffffffffffffffffffffff166117c58361151e565b73ffffffffffffffffffffffffffffffffffffffff1614159050919050565b6117ee8383611aba565b6117fb600084848461184b565b61183a576040517f08c379a000000000000000000000000000000000000000000000000000000000815260040161183190612719565b60405180910390fd5b505050565b50505050565b50505050565b600061186c8473ffffffffffffffffffffffffffffffffffffffff16611cd8565b156119d5578373ffffffffffffffffffffffffffffffffffffffff1663150b7a0261189561103c565b8786866040518563ffffffff1660e01b81526004016118b79493929190612670565b602060405180830381600087803b1580156118d157600080fd5b505af192505050801561190257506040513d601f19601f820116820180604052508101906118ff919061222a565b60015b611985573d8060008114611932576040519150601f19603f3d011682016040523d82523d6000602084013e611937565b606091505b5060008151141561197d576040517f08c379a000000000000000000000000000000000000000000000000000000000815260040161197490612719565b60405180910390fd5b805181602001fd5b63150b7a0260e01b7bffffffffffffffffffffffffffffffffffffffffffffffffffffffff1916817bffffffffffffffffffffffffffffffffffffffffffffffffffffffff1916149150506119da565b600190505b949350505050565b6060600060016119f184611cfb565b01905060008167ffffffffffffffff811115611a1057611a0f612b61565b5b6040519080825280601f01601f191660200182016040528015611a425781602001600182028036833780820191505090505b509050600082602001820190505b600115611aaf578080600190039150507f3031323334353637383961626364656600000000000000000000000000000000600a86061a8153600a8581611a9957611a98612b03565b5b0494506000851415611aaa57611aaf565b611a50565b819350505050919050565b600073ffffffffffffffffffffffffffffffffffffffff168273ffffffffffffffffffffffffffffffffffffffff161415611b2a576040517f08c379a0000000000000000000000000000000000000000000000000000000008152600401611b2190612819565b60405180910390fd5b611b33816117a3565b15611b73576040517f08c379a0000000000000000000000000000000000000000000000000000000008152600401611b6a90612759565b60405180910390fd5b611b8160008383600161183f565b611b8a816117a3565b15611bca576040517f08c379a0000000000000000000000000000000000000000000000000000000008152600401611bc190612759565b60405180910390fd5b6001600360008473ffffffffffffffffffffffffffffffffffffffff1673ffffffffffffffffffffffffffffffffffffffff16815260200190815260200160002060008282540192505081905550816002600083815260200190815260200160002060006101000a81548173ffffffffffffffffffffffffffffffffffffffff021916908373ffffffffffffffffffffffffffffffffffffffff160217905550808273ffffffffffffffffffffffffffffffffffffffff16600073ffffffffffffffffffffffffffffffffffffffff167fddf252ad1be2c89b69c2b068fc378daa952ba7f163c4a11628f55a4df523b3ef60405160405180910390a4611cd4600083836001611845565b5050565b6000808273ffffffffffffffffffffffffffffffffffffffff163b119050919050565b600080600090507a184f03e93ff9f4daa797ed6e38ed64bf6a1f0100000000000000008310611d59577a184f03e93ff9f4daa797ed6e38ed64bf6a1f0100000000000000008381611d4f57611d4e612b03565b5b0492506040810190505b6d04ee2d6d415b85acef81000000008310611d96576d04ee2d6d415b85acef81000000008381611d8c57611d8b612b03565b5b0492506020810190505b662386f26fc100008310611dc557662386f26fc100008381611dbb57611dba612b03565b5b0492506010810190505b6305f5e1008310611dee576305f5e1008381611de457611de3612b03565b5b0492506008810190505b6127108310611e13576127108381611e0957611e08612b03565b5b0492506004810190505b60648310611e365760648381611e2c57611e2b612b03565b5b0492506002810190505b600a8310611e45576001810190505b80915050919050565b828054611e5a90612aa0565b90600052602060002090601f016020900481019282611e7c5760008555611ec3565b82601f10611e9557805160ff1916838001178555611ec3565b82800160010185558215611ec3579182015b82811115611ec2578251825591602001919060010190611ea7565b5b509050611ed09190611ed4565b5090565b5b80821115611eed576000816000905550600101611ed5565b5090565b6000611f04611eff84612945565b612920565b905082815260208101848484011115611f2057611f1f612b95565b5b611f2b848285612a5e565b509392505050565b6000611f46611f4184612976565b612920565b905082815260208101848484011115611f6257611f61612b95565b5b611f6d848285612a5e565b509392505050565b600081359050611f8481612f6f565b92915050565b600081359050611f9981612f86565b92915050565b600081359050611fae81612f9d565b92915050565b600081519050611fc381612f9d565b92915050565b600082601f830112611fde57611fdd612b90565b5b8135611fee848260208601611ef1565b91505092915050565b600082601f83011261200c5761200b612b90565b5b813561201c848260208601611f33565b91505092915050565b60008135905061203481612fb4565b92915050565b6000602082840312156120505761204f612b9f565b5b600061205e84828501611f75565b91505092915050565b6000806040838503121561207e5761207d612b9f565b5b600061208c85828601611f75565b925050602061209d85828601611f75565b9150509250929050565b6000806000606084860312156120c0576120bf612b9f565b5b60006120ce86828701611f75565b93505060206120df86828701611f75565b92505060406120f086828701612025565b9150509250925092565b6000806000806080858703121561211457612113612b9f565b5b600061212287828801611f75565b945050602061213387828801611f75565b935050604061214487828801612025565b925050606085013567ffffffffffffffff81111561216557612164612b9a565b5b61217187828801611fc9565b91505092959194509250565b6000806040838503121561219457612193612b9f565b5b60006121a285828601611f75565b92505060206121b385828601611f8a565b9150509250929050565b600080604083850312156121d4576121d3612b9f565b5b60006121e285828601611f75565b92505060206121f385828601612025565b9150509250929050565b60006020828403121561221357612212612b9f565b5b600061222184828501611f9f565b91505092915050565b6000602082840312156122405761223f612b9f565b5b600061224e84828501611fb4565b91505092915050565b60006020828403121561226d5761226c612b9f565b5b600082013567ffffffffffffffff81111561228b5761228a612b9a565b5b61229784828501611ff7565b91505092915050565b600080604083850312156122b7576122b6612b9f565b5b600083013567ffffffffffffffff8111156122d5576122d4612b9a565b5b6122e185828601611ff7565b92505060206122f285828601612025565b9150509250929050565b60006020828403121561231257612311612b9f565b5b600061232084828501612025565b91505092915050565b612332816129ea565b82525050565b612341816129fc565b82525050565b6000612352826129a7565b61235c81856129bd565b935061236c818560208601612a6d565b61237581612ba4565b840191505092915050565b600061238b826129b2565b61239581856129ce565b93506123a5818560208601612a6d565b6123ae81612ba4565b840191505092915050565b60006123c4826129b2565b6123ce81856129df565b93506123de818560208601612a6d565b80840191505092915050565b60006123f7602d836129ce565b915061240282612bb5565b604082019050919050565b600061241a6032836129ce565b915061242582612c04565b604082019050919050565b600061243d6025836129ce565b915061244882612c53565b604082019050919050565b6000612460601c836129ce565b915061246b82612ca2565b602082019050919050565b60006124836024836129ce565b915061248e82612ccb565b604082019050919050565b60006124a66019836129ce565b91506124b182612d1a565b602082019050919050565b60006124c96026836129ce565b91506124d482612d43565b604082019050919050565b60006124ec6029836129ce565b91506124f782612d92565b604082019050919050565b600061250f602e836129ce565b915061251a82612de1565b604082019050919050565b60006125326020836129ce565b915061253d82612e30565b602082019050919050565b60006125556033836129ce565b915061256082612e59565b604082019050919050565b60006125786018836129ce565b915061258382612ea8565b602082019050919050565b600061259b6021836129ce565b91506125a682612ed1565b604082019050919050565b60006125be603d836129ce565b91506125c982612f20565b604082019050919050565b6125dd81612a54565b82525050565b60006125ef82846123b9565b915081905092915050565b600061260682856123b9565b915061261282846123b9565b91508190509392505050565b60006020820190506126336000830184612329565b92915050565b600060608201905061264e6000830186612329565b61265b6020830185612329565b61266860408301846125d4565b949350505050565b60006080820190506126856000830187612329565b6126926020830186612329565b61269f60408301856125d4565b81810360608301526126b18184612347565b905095945050505050565b60006020820190506126d16000830184612338565b92915050565b600060208201905081810360008301526126f18184612380565b905092915050565b60006020820190508181036000830152612712816123ea565b9050919050565b600060208201905081810360008301526127328161240d565b9050919050565b6000602082019050818103600083015261275281612430565b9050919050565b6000602082019050818103600083015261277281612453565b9050919050565b6000602082019050818103600083015261279281612476565b9050919050565b600060208201905081810360008301526127b281612499565b9050919050565b600060208201905081810360008301526127d2816124bc565b9050919050565b600060208201905081810360008301526127f2816124df565b9050919050565b6000602082019050818103600083015261281281612502565b9050919050565b6000602082019050818103600083015261283281612525565b9050919050565b6000602082019050818103600083015261285281612548565b9050919050565b600060208201905081810360008301526128728161256b565b9050919050565b600060208201905081810360008301526128928161258e565b9050919050565b600060208201905081810360008301526128b2816125b1565b9050919050565b60006020820190506128ce60008301846125d4565b92915050565b60006080820190506128e960008301876125d4565b6128f66020830186612329565b81810360408301526129088185612380565b905061291760608301846125d4565b95945050505050565b600061292a61293b565b90506129368282612ad2565b919050565b6000604051905090565b600067ffffffffffffffff8211156129605761295f612b61565b5b61296982612ba4565b9050602081019050919050565b600067ffffffffffffffff82111561299157612990612b61565b5b61299a82612ba4565b9050602081019050919050565b600081519050919050565b600081519050919050565b600082825260208201905092915050565b600082825260208201905092915050565b600081905092915050565b60006129f582612a34565b9050919050565b60008115159050919050565b60007fffffffff0000000000000000000000000000000000000000000000000000000082169050919050565b600073ffffffffffffffffffffffffffffffffffffffff82169050919050565b6000819050919050565b82818337600083830152505050565b60005b83811015612a8b578082015181840152602081019050612a70565b83811115612a9a576000848401525b50505050565b60006002820490506001821680612ab857607f821691505b60208210811415612acc57612acb612b32565b5b50919050565b612adb82612ba4565b810181811067ffffffffffffffff82111715612afa57612af9612b61565b5b80604052505050565b7f4e487b7100000000000000000000000000000000000000000000000000000000600052601260045260246000fd5b7f4e487b7100000000000000000000000000000000000000000000000000000000600052602260045260246000fd5b7f4e487b7100000000000000000000000000000000000000000000000000000000600052604160045260246000fd5b600080fd5b600080fd5b600080fd5b600080fd5b6000601f19601f8301169050919050565b7f4552433732313a2063616c6c6572206973206e6f7420746f6b656e206f776e6560008201527f72206f7220617070726f76656400000000000000000000000000000000000000602082015250565b7f4552433732313a207472616e7366657220746f206e6f6e20455243373231526560008201527f63656976657220696d706c656d656e7465720000000000000000000000000000602082015250565b7f4552433732313a207472616e736665722066726f6d20696e636f72726563742060008201527f6f776e6572000000000000000000000000000000000000000000000000000000602082015250565b7f4552433732313a20746f6b656e20616c7265616479206d696e74656400000000600082015250565b7f4552433732313a207472616e7366657220746f20746865207a65726f2061646460008201527f7265737300000000000000000000000000000000000000000000000000000000602082015250565b7f4552433732313a20617070726f766520746f2063616c6c657200000000000000600082015250565b7f526f79616c74696573206d757374206265206265747765656e2031302520616e60008201527f64203235252e0000000000000000000000000000000000000000000000000000602082015250565b7f4552433732313a2061646472657373207a65726f206973206e6f74206120766160008201527f6c6964206f776e65720000000000000000000000000000000000000000000000602082015250565b7f45524337323155524953746f726167653a2055524920736574206f66206e6f6e60008201527f6578697374656e7420746f6b656e000000000000000000000000000000000000602082015250565b7f4552433732313a206d696e7420746f20746865207a65726f2061646472657373600082015250565b7f54686973206d657461646174612068617320616c7265616479206265656e207560008201527f73656420746f206d696e7420616e204e46542e00000000000000000000000000602082015250565b7f4552433732313a20696e76616c696420746f6b656e2049440000000000000000600082015250565b7f4552433732313a20617070726f76616c20746f2063757272656e74206f776e6560008201527f7200000000000000000000000000000000000000000000000000000000000000602082015250565b7f4552433732313a20617070726f76652063616c6c6572206973206e6f7420746f60008201527f6b656e206f776e6572206f7220617070726f76656420666f7220616c6c000000602082015250565b612f78816129ea565b8114612f8357600080fd5b50565b612f8f816129fc565b8114612f9a57600080fd5b50565b612fa681612a08565b8114612fb157600080fd5b50565b612fbd81612a54565b8114612fc857600080fd5b5056fea2646970667358221220593dd4550f8814be12a6210b362e0cd8dff9fc1c0e45884383726776f8e0b43964736f6c63430008060033",
  "immutableReferences": {},
  "source": "// SPDX-License-Identifier: UNLICENSED\r\npragma solidity ^0.8.6;\r\n\r\nimport \"@openzeppelin/contracts/token/ERC721/extensions/ERC721URIStorage.sol\";\r\nimport \"@openzeppelin/contracts/utils/math/SafeMath.sol\";\r\n\r\ncontract Collectible is ERC721URIStorage {\r\n    // Mapping to check if the metadata has been minted\r\n    mapping(string => bool) public hasBeenMinted;\r\n\r\n    // Mapping to keep track of the Item\r\n    mapping(uint256 => Item) public tokenIdToItem;\r\n\r\n    // A struct for the collectible item containing info about `owner`, `creator` and the `royalty`\r\n    struct Item {\r\n        address owner;\r\n        address creator;\r\n        uint256 royalty;\r\n    }\r\n\r\n    Item[] private items;\r\n\r\n    /**\r\n     * @dev Emitted when a `tokenId` has been bought for a `price` by a `buyer`\r\n    */\r\n    event ItemMinted(uint256 tokenId, address creator, string metadata, uint256 royalty);\r\n\r\n    /**\r\n     * @dev Initializes the contract by setting a `name` and a `symbol` to the token collection inheriting from the ERC721 smart contract.\r\n     */\r\n    constructor() ERC721(\"MyNFT\", \"MNFT\") {}\r\n\r\n    /**\r\n     * @dev create a collectible with a `metadata` for the msg.sender\r\n     *\r\n     * Requirements:\r\n     * - `metadata` has not been minted before\r\n     * - `royalty` must be between 0% and 40%\r\n     *\r\n     * Emits a {Transfer} event - comes from the ERC-721 smart contract.\r\n     */\r\n    function createCollectible(string memory metadata, uint256 royalty)\r\n        public\r\n        returns (uint256)\r\n    {\r\n        require(\r\n            !hasBeenMinted[metadata],\r\n            \"This metadata has already been used to mint an NFT.\"\r\n        );\r\n        require(\r\n            royalty >= 10 && royalty <= 25,\r\n            \"Royalties must be between 10% and 25%.\"\r\n        );\r\n        Item memory newItem = Item(msg.sender, msg.sender, royalty);\r\n        items.push(newItem);\r\n        uint256 newItemId = items.length;\r\n        _safeMint(msg.sender, newItemId);\r\n        _setTokenURI(newItemId, metadata);\r\n        tokenIdToItem[newItemId] = newItem;\r\n        hasBeenMinted[metadata] = true;\r\n        emit ItemMinted(newItemId, msg.sender, metadata, royalty);\r\n        return newItemId;\r\n    }\r\n\r\n    /**\r\n     * @dev return the length of the items array\r\n     */\r\n    function getItemsLength() public view returns (uint256) {\r\n        return items.length;\r\n    }\r\n\r\n    /**\r\n     * @dev return an item associated to a provided `tokenId`\r\n     */\r\n    function getItem(uint256 tokenId) public view returns (address, address, uint256)\r\n    {\r\n        return (tokenIdToItem[tokenId].owner, tokenIdToItem[tokenId].creator, tokenIdToItem[tokenId].royalty);\r\n    }\r\n}",
  "sourcePath": "C:\\Sergey\\Projects\\SmartContracts\\contracts\\Collectible.sol",
  "compiler": {
    "name": "solc",
    "version": "0.8.6+commit.11564f7e.Emscripten.clang"
  },
  "schemaVersion": "3.4.13",
  "updatedAt": "2023-03-31T11:40:10.466Z",
  "networkType": "ethereum",
  "devdoc": {
    "events": {
      "ItemMinted(uint256,address,string,uint256)": {
        "details": "Emitted when a `tokenId` has been bought for a `price` by a `buyer`"
      }
    },
    "kind": "dev",
    "methods": {
      "approve(address,uint256)": {
        "details": "See {IERC721-approve}."
      },
      "balanceOf(address)": {
        "details": "See {IERC721-balanceOf}."
      },
      "constructor": {
        "details": "Initializes the contract by setting a `name` and a `symbol` to the token collection inheriting from the ERC721 smart contract."
      },
      "createCollectible(string,uint256)": {
        "details": "create a collectible with a `metadata` for the msg.sender Requirements: - `metadata` has not been minted before - `royalty` must be between 0% and 40% Emits a {Transfer} event - comes from the ERC-721 smart contract."
      },
      "getApproved(uint256)": {
        "details": "See {IERC721-getApproved}."
      },
      "getItem(uint256)": {
        "details": "return an item associated to a provided `tokenId`"
      },
      "getItemsLength()": {
        "details": "return the length of the items array"
      },
      "isApprovedForAll(address,address)": {
        "details": "See {IERC721-isApprovedForAll}."
      },
      "name()": {
        "details": "See {IERC721Metadata-name}."
      },
      "ownerOf(uint256)": {
        "details": "See {IERC721-ownerOf}."
      },
      "safeTransferFrom(address,address,uint256)": {
        "details": "See {IERC721-safeTransferFrom}."
      },
      "safeTransferFrom(address,address,uint256,bytes)": {
        "details": "See {IERC721-safeTransferFrom}."
      },
      "setApprovalForAll(address,bool)": {
        "details": "See {IERC721-setApprovalForAll}."
      },
      "supportsInterface(bytes4)": {
        "details": "See {IERC165-supportsInterface}."
      },
      "symbol()": {
        "details": "See {IERC721Metadata-symbol}."
      },
      "tokenURI(uint256)": {
        "details": "See {IERC721Metadata-tokenURI}."
      },
      "transferFrom(address,address,uint256)": {
        "details": "See {IERC721-transferFrom}."
      }
    },
    "version": 1
  },
  "userdoc": {
    "kind": "user",
    "methods": {},
    "version": 1
  }
}