{
  "contractName": "Marketplace",
  "abi": [
    {
      "anonymous": false,
      "inputs": [
        {
          "indexed": true,
          "internalType": "address",
          "name": "owner",
          "type": "address"
        },
        {
          "indexed": true,
          "internalType": "address",
          "name": "approved",
          "type": "address"
        },
        {
          "indexed": true,
          "internalType": "uint256",
          "name": "tokenId",
          "type": "uint256"
        }
      ],
      "name": "Approval",
      "type": "event"
    },
    {
      "anonymous": false,
      "inputs": [
        {
          "indexed": true,
          "internalType": "address",
          "name": "owner",
          "type": "address"
        },
        {
          "indexed": true,
          "internalType": "address",
          "name": "operator",
          "type": "address"
        },
        {
          "indexed": false,
          "internalType": "bool",
          "name": "approved",
          "type": "bool"
        }
      ],
      "name": "ApprovalForAll",
      "type": "event"
    },
    {
      "anonymous": false,
      "inputs": [
        {
          "indexed": false,
          "internalType": "uint256",
          "name": "tokenId",
          "type": "uint256"
        },
        {
          "indexed": false,
          "internalType": "uint256",
          "name": "price",
          "type": "uint256"
        },
        {
          "indexed": false,
          "internalType": "address",
          "name": "buyer",
          "type": "address"
        }
      ],
      "name": "ItemBought",
      "type": "event"
    },
    {
      "anonymous": false,
      "inputs": [
        {
          "indexed": false,
          "internalType": "uint256",
          "name": "tokenId",
          "type": "uint256"
        },
        {
          "indexed": false,
          "internalType": "uint256",
          "name": "price",
          "type": "uint256"
        },
        {
          "indexed": false,
          "internalType": "address",
          "name": "seller",
          "type": "address"
        }
      ],
      "name": "ItemListed",
      "type": "event"
    },
    {
      "anonymous": false,
      "inputs": [
        {
          "indexed": false,
          "internalType": "uint256",
          "name": "tokenId",
          "type": "uint256"
        },
        {
          "indexed": false,
          "internalType": "address",
          "name": "creator",
          "type": "address"
        },
        {
          "indexed": false,
          "internalType": "string",
          "name": "metadata",
          "type": "string"
        },
        {
          "indexed": false,
          "internalType": "uint256",
          "name": "royalty",
          "type": "uint256"
        }
      ],
      "name": "ItemMinted",
      "type": "event"
    },
    {
      "anonymous": false,
      "inputs": [
        {
          "indexed": false,
          "internalType": "uint256",
          "name": "tokenId",
          "type": "uint256"
        },
        {
          "indexed": false,
          "internalType": "uint256",
          "name": "price",
          "type": "uint256"
        },
        {
          "indexed": false,
          "internalType": "address",
          "name": "seller",
          "type": "address"
        }
      ],
      "name": "ListingCancelled",
      "type": "event"
    },
    {
      "anonymous": false,
      "inputs": [
        {
          "indexed": true,
          "internalType": "address",
          "name": "from",
          "type": "address"
        },
        {
          "indexed": true,
          "internalType": "address",
          "name": "to",
          "type": "address"
        },
        {
          "indexed": true,
          "internalType": "uint256",
          "name": "tokenId",
          "type": "uint256"
        }
      ],
      "name": "Transfer",
      "type": "event"
    },
    {
      "inputs": [
        {
          "internalType": "address",
          "name": "to",
          "type": "address"
        },
        {
          "internalType": "uint256",
          "name": "tokenId",
          "type": "uint256"
        }
      ],
      "name": "approve",
      "outputs": [],
      "stateMutability": "nonpayable",
      "type": "function"
    },
    {
      "inputs": [
        {
          "internalType": "address",
          "name": "owner",
          "type": "address"
        }
      ],
      "name": "balanceOf",
      "outputs": [
        {
          "internalType": "uint256",
          "name": "",
          "type": "uint256"
        }
      ],
      "stateMutability": "view",
      "type": "function",
      "constant": true
    },
    {
      "inputs": [
        {
          "internalType": "uint256",
          "name": "",
          "type": "uint256"
        }
      ],
      "name": "claimableByAccount",
      "outputs": [
        {
          "internalType": "address",
          "name": "",
          "type": "address"
        }
      ],
      "stateMutability": "view",
      "type": "function",
      "constant": true
    },
    {
      "inputs": [
        {
          "internalType": "string",
          "name": "metadata",
          "type": "string"
        },
        {
          "internalType": "uint256",
          "name": "royalty",
          "type": "uint256"
        }
      ],
      "name": "createCollectible",
      "outputs": [
        {
          "internalType": "uint256",
          "name": "",
          "type": "uint256"
        }
      ],
      "stateMutability": "nonpayable",
      "type": "function"
    },
    {
      "inputs": [
        {
          "internalType": "uint256",
          "name": "tokenId",
          "type": "uint256"
        }
      ],
      "name": "getApproved",
      "outputs": [
        {
          "internalType": "address",
          "name": "",
          "type": "address"
        }
      ],
      "stateMutability": "view",
      "type": "function",
      "constant": true
    },
    {
      "inputs": [
        {
          "internalType": "uint256",
          "name": "tokenId",
          "type": "uint256"
        }
      ],
      "name": "getItem",
      "outputs": [
        {
          "internalType": "address",
          "name": "",
          "type": "address"
        },
        {
          "internalType": "address",
          "name": "",
          "type": "address"
        },
        {
          "internalType": "uint256",
          "name": "",
          "type": "uint256"
        }
      ],
      "stateMutability": "view",
      "type": "function",
      "constant": true
    },
    {
      "inputs": [],
      "name": "getItemsLength",
      "outputs": [
        {
          "internalType": "uint256",
          "name": "",
          "type": "uint256"
        }
      ],
      "stateMutability": "view",
      "type": "function",
      "constant": true
    },
    {
      "inputs": [
        {
          "internalType": "uint256",
          "name": "",
          "type": "uint256"
        }
      ],
      "name": "hasBeenListed",
      "outputs": [
        {
          "internalType": "bool",
          "name": "",
          "type": "bool"
        }
      ],
      "stateMutability": "view",
      "type": "function",
      "constant": true
    },
    {
      "inputs": [
        {
          "internalType": "string",
          "name": "",
          "type": "string"
        }
      ],
      "name": "hasBeenMinted",
      "outputs": [
        {
          "internalType": "bool",
          "name": "",
          "type": "bool"
        }
      ],
      "stateMutability": "view",
      "type": "function",
      "constant": true
    },
    {
      "inputs": [
        {
          "internalType": "address",
          "name": "owner",
          "type": "address"
        },
        {
          "internalType": "address",
          "name": "operator",
          "type": "address"
        }
      ],
      "name": "isApprovedForAll",
      "outputs": [
        {
          "internalType": "bool",
          "name": "",
          "type": "bool"
        }
      ],
      "stateMutability": "view",
      "type": "function",
      "constant": true
    },
    {
      "inputs": [],
      "name": "name",
      "outputs": [
        {
          "internalType": "string",
          "name": "",
          "type": "string"
        }
      ],
      "stateMutability": "view",
      "type": "function",
      "constant": true
    },
    {
      "inputs": [
        {
          "internalType": "uint256",
          "name": "tokenId",
          "type": "uint256"
        }
      ],
      "name": "ownerOf",
      "outputs": [
        {
          "internalType": "address",
          "name": "",
          "type": "address"
        }
      ],
      "stateMutability": "view",
      "type": "function",
      "constant": true
    },
    {
      "inputs": [
        {
          "internalType": "address",
          "name": "from",
          "type": "address"
        },
        {
          "internalType": "address",
          "name": "to",
          "type": "address"
        },
        {
          "internalType": "uint256",
          "name": "tokenId",
          "type": "uint256"
        }
      ],
      "name": "safeTransferFrom",
      "outputs": [],
      "stateMutability": "nonpayable",
      "type": "function"
    },
    {
      "inputs": [
        {
          "internalType": "address",
          "name": "from",
          "type": "address"
        },
        {
          "internalType": "address",
          "name": "to",
          "type": "address"
        },
        {
          "internalType": "uint256",
          "name": "tokenId",
          "type": "uint256"
        },
        {
          "internalType": "bytes",
          "name": "data",
          "type": "bytes"
        }
      ],
      "name": "safeTransferFrom",
      "outputs": [],
      "stateMutability": "nonpayable",
      "type": "function"
    },
    {
      "inputs": [
        {
          "internalType": "address",
          "name": "operator",
          "type": "address"
        },
        {
          "internalType": "bool",
          "name": "approved",
          "type": "bool"
        }
      ],
      "name": "setApprovalForAll",
      "outputs": [],
      "stateMutability": "nonpayable",
      "type": "function"
    },
    {
      "inputs": [
        {
          "internalType": "bytes4",
          "name": "interfaceId",
          "type": "bytes4"
        }
      ],
      "name": "supportsInterface",
      "outputs": [
        {
          "internalType": "bool",
          "name": "",
          "type": "bool"
        }
      ],
      "stateMutability": "view",
      "type": "function",
      "constant": true
    },
    {
      "inputs": [],
      "name": "symbol",
      "outputs": [
        {
          "internalType": "string",
          "name": "",
          "type": "string"
        }
      ],
      "stateMutability": "view",
      "type": "function",
      "constant": true
    },
    {
      "inputs": [
        {
          "internalType": "uint256",
          "name": "",
          "type": "uint256"
        }
      ],
      "name": "tokenIdToItem",
      "outputs": [
        {
          "internalType": "address",
          "name": "owner",
          "type": "address"
        },
        {
          "internalType": "address",
          "name": "creator",
          "type": "address"
        },
        {
          "internalType": "uint256",
          "name": "royalty",
          "type": "uint256"
        }
      ],
      "stateMutability": "view",
      "type": "function",
      "constant": true
    },
    {
      "inputs": [
        {
          "internalType": "uint256",
          "name": "",
          "type": "uint256"
        }
      ],
      "name": "tokenIdToListing",
      "outputs": [
        {
          "internalType": "uint256",
          "name": "price",
          "type": "uint256"
        },
        {
          "internalType": "address",
          "name": "owner",
          "type": "address"
        }
      ],
      "stateMutability": "view",
      "type": "function",
      "constant": true
    },
    {
      "inputs": [
        {
          "internalType": "uint256",
          "name": "tokenId",
          "type": "uint256"
        }
      ],
      "name": "tokenURI",
      "outputs": [
        {
          "internalType": "string",
          "name": "",
          "type": "string"
        }
      ],
      "stateMutability": "view",
      "type": "function",
      "constant": true
    },
    {
      "inputs": [
        {
          "internalType": "address",
          "name": "from",
          "type": "address"
        },
        {
          "internalType": "address",
          "name": "to",
          "type": "address"
        },
        {
          "internalType": "uint256",
          "name": "tokenId",
          "type": "uint256"
        }
      ],
      "name": "transferFrom",
      "outputs": [],
      "stateMutability": "nonpayable",
      "type": "function"
    },
    {
      "inputs": [
        {
          "internalType": "uint256",
          "name": "tokenId",
          "type": "uint256"
        },
        {
          "internalType": "uint256",
          "name": "price",
          "type": "uint256"
        }
      ],
      "name": "listItem",
      "outputs": [],
      "stateMutability": "nonpayable",
      "type": "function"
    },
    {
      "inputs": [
        {
          "internalType": "uint256",
          "name": "tokenId",
          "type": "uint256"
        }
      ],
      "name": "cancelListing",
      "outputs": [],
      "stateMutability": "nonpayable",
      "type": "function"
    },
    {
      "inputs": [
        {
          "internalType": "uint256",
          "name": "tokenId",
          "type": "uint256"
        }
      ],
      "name": "buyItem",
      "outputs": [],
      "stateMutability": "payable",
      "type": "function",
      "payable": true
    },
    {
      "inputs": [
        {
          "internalType": "uint256",
          "name": "tokenId",
          "type": "uint256"
        }
      ],
      "name": "getListing",
      "outputs": [
        {
          "internalType": "uint256",
          "name": "",
          "type": "uint256"
        },
        {
          "internalType": "address",
          "name": "",
          "type": "address"
        }
      ],
      "stateMutability": "view",
      "type": "function",
      "constant": true
    }
  ],
  "bytecode": "0x60806040523480156200001157600080fd5b506040518060400160405280600581526020017f4d794e46540000000000000000000000000000000000000000000000000000008152506040518060400160405280600481526020017f4d4e465400000000000000000000000000000000000000000000000000000000815250816000908051906020019062000096929190620000b8565b508060019080519060200190620000af929190620000b8565b505050620001cd565b828054620000c69062000168565b90600052602060002090601f016020900481019282620000ea576000855562000136565b82601f106200010557805160ff191683800117855562000136565b8280016001018555821562000136579182015b828111156200013557825182559160200191906001019062000118565b5b50905062000145919062000149565b5090565b5b80821115620001645760008160009055506001016200014a565b5090565b600060028204905060018216806200018157607f821691505b602082108114156200019857620001976200019e565b5b50919050565b7f4e487b7100000000000000000000000000000000000000000000000000000000600052602260045260246000fd5b61410480620001dd6000396000f3fe6080604052600436106101665760003560e01c80635d36a364116100d1578063b10d78241161008a578063c87b56dd11610064578063c87b56dd146105af578063e7fb74c7146105ec578063e985e9c514610608578063ffde808d1461064557610166565b8063b10d78241461050c578063b88d4fde14610549578063ba6dc0d21461057257610166565b80635d36a364146103d65780636352211e1461041557806370a0823114610452578063883efa671461048f57806395d89b41146104b8578063a22cb465146104e357610166565b80631f061a29116101235780631f061a29146102a25780632337e853146102df57806323b872dd1461031c578063305a67a8146103455780633129e7731461036e57806342842e0e146103ad57610166565b806301ffc9a71461016b57806306fdde03146101a8578063081812fc146101d3578063095ea7b314610210578063107a274a14610239578063194f479514610277575b600080fd5b34801561017757600080fd5b50610192600480360381019061018d9190612dc0565b610683565b60405161019f91906133c9565b60405180910390f35b3480156101b457600080fd5b506101bd610765565b6040516101ca91906133e4565b60405180910390f35b3480156101df57600080fd5b506101fa60048036038101906101f59190612ebf565b6107f7565b604051610207919061332b565b60405180910390f35b34801561021c57600080fd5b5061023760048036038101906102329190612d80565b61083d565b005b34801561024557600080fd5b50610260600480360381019061025b9190612ebf565b610955565b60405161026e9291906136a1565b60405180910390f35b34801561028357600080fd5b5061028c6109af565b6040516102999190613686565b60405180910390f35b3480156102ae57600080fd5b506102c960048036038101906102c49190612e63565b6109bc565b6040516102d69190613686565b60405180910390f35b3480156102eb57600080fd5b5061030660048036038101906103019190612ebf565b610cd8565b60405161031391906133c9565b60405180910390f35b34801561032857600080fd5b50610343600480360381019061033e9190612c6a565b610cf8565b005b34801561035157600080fd5b5061036c60048036038101906103679190612ebf565b610d58565b005b34801561037a57600080fd5b5061039560048036038101906103909190612ebf565b610efe565b6040516103a493929190613346565b60405180910390f35b3480156103b957600080fd5b506103d460048036038101906103cf9190612c6a565b610f95565b005b3480156103e257600080fd5b506103fd60048036038101906103f89190612ebf565b610fb5565b60405161040c93929190613346565b60405180910390f35b34801561042157600080fd5b5061043c60048036038101906104379190612ebf565b61101f565b604051610449919061332b565b60405180910390f35b34801561045e57600080fd5b5061047960048036038101906104749190612bfd565b6110a6565b6040516104869190613686565b60405180910390f35b34801561049b57600080fd5b506104b660048036038101906104b19190612eec565b61115e565b005b3480156104c457600080fd5b506104cd611391565b6040516104da91906133e4565b60405180910390f35b3480156104ef57600080fd5b5061050a60048036038101906105059190612d40565b611423565b005b34801561051857600080fd5b50610533600480360381019061052e9190612e1a565b611439565b60405161054091906133c9565b60405180910390f35b34801561055557600080fd5b50610570600480360381019061056b9190612cbd565b61146f565b005b34801561057e57600080fd5b5061059960048036038101906105949190612ebf565b6114d1565b6040516105a6919061332b565b60405180910390f35b3480156105bb57600080fd5b506105d660048036038101906105d19190612ebf565b611504565b6040516105e391906133e4565b60405180910390f35b61060660048036038101906106019190612ebf565b611617565b005b34801561061457600080fd5b5061062f600480360381019061062a9190612c2a565b611a30565b60405161063c91906133c9565b60405180910390f35b34801561065157600080fd5b5061066c60048036038101906106679190612ebf565b611ac4565b60405161067a9291906136a1565b60405180910390f35b60007f80ac58cd000000000000000000000000000000000000000000000000000000007bffffffffffffffffffffffffffffffffffffffffffffffffffffffff1916827bffffffffffffffffffffffffffffffffffffffffffffffffffffffff1916148061074e57507f5b5e139f000000000000000000000000000000000000000000000000000000007bffffffffffffffffffffffffffffffffffffffffffffffffffffffff1916827bffffffffffffffffffffffffffffffffffffffffffffffffffffffff1916145b8061075e575061075d82611b08565b5b9050919050565b60606000805461077490613997565b80601f01602080910402602001604051908101604052809291908181526020018280546107a090613997565b80156107ed5780601f106107c2576101008083540402835291602001916107ed565b820191906000526020600020905b8154815290600101906020018083116107d057829003601f168201915b5050505050905090565b600061080282611b72565b6004600083815260200190815260200160002060009054906101000a900473ffffffffffffffffffffffffffffffffffffffff169050919050565b60006108488261101f565b90508073ffffffffffffffffffffffffffffffffffffffff168373ffffffffffffffffffffffffffffffffffffffff1614156108b9576040517f08c379a00000000000000000000000000000000000000000000000000000000081526004016108b090613606565b60405180910390fd5b8073ffffffffffffffffffffffffffffffffffffffff166108d8611bbd565b73ffffffffffffffffffffffffffffffffffffffff161480610907575061090681610901611bbd565b611a30565b5b610946576040517f08c379a000000000000000000000000000000000000000000000000000000000815260040161093d90613646565b60405180910390fd5b6109508383611bc5565b505050565b600080600a600084815260200190815260200160002060000154600a600085815260200190815260200160002060010160009054906101000a900473ffffffffffffffffffffffffffffffffffffffff1691509150915091565b6000600980549050905090565b60006007836040516109ce91906132db565b908152602001604051809103902060009054906101000a900460ff1615610a2a576040517f08c379a0000000000000000000000000000000000000000000000000000000008152600401610a21906135c6565b60405180910390fd5b600a8210158015610a3c575060198211155b610a7b576040517f08c379a0000000000000000000000000000000000000000000000000000000008152600401610a7290613506565b60405180910390fd5b600060405180606001604052803373ffffffffffffffffffffffffffffffffffffffff1681526020013373ffffffffffffffffffffffffffffffffffffffff168152602001848152509050600981908060018154018082558091505060019003906000526020600020906003020160009091909190915060008201518160000160006101000a81548173ffffffffffffffffffffffffffffffffffffffff021916908373ffffffffffffffffffffffffffffffffffffffff16021790555060208201518160010160006101000a81548173ffffffffffffffffffffffffffffffffffffffff021916908373ffffffffffffffffffffffffffffffffffffffff16021790555060408201518160020155505060006009805490509050610ba03382611c7e565b610baa8186611c9c565b816008600083815260200190815260200160002060008201518160000160006101000a81548173ffffffffffffffffffffffffffffffffffffffff021916908373ffffffffffffffffffffffffffffffffffffffff16021790555060208201518160010160006101000a81548173ffffffffffffffffffffffffffffffffffffffff021916908373ffffffffffffffffffffffffffffffffffffffff160217905550604082015181600201559050506001600786604051610c6b91906132db565b908152602001604051809103902060006101000a81548160ff0219169083151502179055507facd3f0bb7315448676927177916d82d603042a661927f33e76f60c49da0f587f81338787604051610cc594939291906136ca565b60405180910390a1809250505092915050565b600b6020528060005260406000206000915054906101000a900460ff1681565b610d09610d03611bbd565b82611d10565b610d48576040517f08c379a0000000000000000000000000000000000000000000000000000000008152600401610d3f90613406565b60405180910390fd5b610d53838383611da5565b505050565b80600c600082815260200190815260200160002060009054906101000a900473ffffffffffffffffffffffffffffffffffffffff1673ffffffffffffffffffffffffffffffffffffffff163373ffffffffffffffffffffffffffffffffffffffff1614610dfa576040517f08c379a0000000000000000000000000000000000000000000000000000000008152600401610df190613626565b60405180910390fd5b610e05303384611da5565b6000600a6000848152602001908152602001600020600001549050600c600084815260200190815260200160002060006101000a81549073ffffffffffffffffffffffffffffffffffffffff0219169055600a60008481526020019081526020016000206000808201600090556001820160006101000a81549073ffffffffffffffffffffffffffffffffffffffff02191690555050600b600084815260200190815260200160002060006101000a81549060ff02191690557f5f0be1e06429123bb18a91b02cae2672c631c3d0eef488ee77e1e9870a6e2cb4838233604051610ef193929190613716565b60405180910390a1505050565b60008060006008600085815260200190815260200160002060000160009054906101000a900473ffffffffffffffffffffffffffffffffffffffff166008600086815260200190815260200160002060010160009054906101000a900473ffffffffffffffffffffffffffffffffffffffff1660086000878152602001908152602001600020600201549250925092509193909250565b610fb08383836040518060200160405280600081525061146f565b505050565b60086020528060005260406000206000915090508060000160009054906101000a900473ffffffffffffffffffffffffffffffffffffffff16908060010160009054906101000a900473ffffffffffffffffffffffffffffffffffffffff16908060020154905083565b60008061102b8361209f565b9050600073ffffffffffffffffffffffffffffffffffffffff168173ffffffffffffffffffffffffffffffffffffffff16141561109d576040517f08c379a0000000000000000000000000000000000000000000000000000000008152600401611094906135e6565b60405180910390fd5b80915050919050565b60008073ffffffffffffffffffffffffffffffffffffffff168273ffffffffffffffffffffffffffffffffffffffff161415611117576040517f08c379a000000000000000000000000000000000000000000000000000000000815260040161110e90613526565b60405180910390fd5b600360008373ffffffffffffffffffffffffffffffffffffffff1673ffffffffffffffffffffffffffffffffffffffff168152602001908152602001600020549050919050565b816111688161101f565b73ffffffffffffffffffffffffffffffffffffffff163373ffffffffffffffffffffffffffffffffffffffff16146111d5576040517f08c379a00000000000000000000000000000000000000000000000000000000081526004016111cc906135a6565b60405180910390fd5b600b600084815260200190815260200160002060009054906101000a900460ff1615611236576040517f08c379a000000000000000000000000000000000000000000000000000000000815260040161122d90613666565b60405180910390fd5b611241333085611da5565b33600c600085815260200190815260200160002060006101000a81548173ffffffffffffffffffffffffffffffffffffffff021916908373ffffffffffffffffffffffffffffffffffffffff16021790555060405180604001604052808381526020013373ffffffffffffffffffffffffffffffffffffffff16815250600a60008581526020019081526020016000206000820151816000015560208201518160010160006101000a81548173ffffffffffffffffffffffffffffffffffffffff021916908373ffffffffffffffffffffffffffffffffffffffff1602179055509050506001600b600085815260200190815260200160002060006101000a81548160ff0219169083151502179055507f092007ff2210a28905dcb35e8410b931493756ecaa2dc88307373c190349b04583833360405161138493929190613716565b60405180910390a1505050565b6060600180546113a090613997565b80601f01602080910402602001604051908101604052809291908181526020018280546113cc90613997565b80156114195780601f106113ee57610100808354040283529160200191611419565b820191906000526020600020905b8154815290600101906020018083116113fc57829003601f168201915b5050505050905090565b61143561142e611bbd565b83836120dc565b5050565b6007818051602081018201805184825260208301602085012081835280955050505050506000915054906101000a900460ff1681565b61148061147a611bbd565b83611d10565b6114bf576040517f08c379a00000000000000000000000000000000000000000000000000000000081526004016114b690613406565b60405180910390fd5b6114cb84848484612249565b50505050565b600c6020528060005260406000206000915054906101000a900473ffffffffffffffffffffffffffffffffffffffff1681565b606061150f82611b72565b600060066000848152602001908152602001600020805461152f90613997565b80601f016020809104026020016040519081016040528092919081815260200182805461155b90613997565b80156115a85780601f1061157d576101008083540402835291602001916115a8565b820191906000526020600020905b81548152906001019060200180831161158b57829003601f168201915b5050505050905060006115b96122a5565b90506000815114156115cf578192505050611612565b6000825111156116045780826040516020016115ec9291906132f2565b60405160208183030381529060405292505050611612565b61160d846122bc565b925050505b919050565b600b600082815260200190815260200160002060009054906101000a900460ff16611677576040517f08c379a000000000000000000000000000000000000000000000000000000000815260040161166e906134a6565b60405180910390fd5b34600a600083815260200190815260200160002060000154146116cf576040517f08c379a00000000000000000000000000000000000000000000000000000000081526004016116c690613486565b60405180910390fd5b600061170d60646116ff34600860008781526020019081526020016000206002015461232490919063ffffffff16565b61233a90919063ffffffff16565b90506000611724823461235090919063ffffffff16565b905060006008600085815260200190815260200160002060010160009054906101000a900473ffffffffffffffffffffffffffffffffffffffff1673ffffffffffffffffffffffffffffffffffffffff168360405161178290613316565b60006040518083038185875af1925050503d80600081146117bf576040519150601f19603f3d011682016040523d82523d6000602084013e6117c4565b606091505b5050905080611808576040517f08c379a00000000000000000000000000000000000000000000000000000000081526004016117ff90613566565b60405180910390fd5b60006008600086815260200190815260200160002060000160009054906101000a900473ffffffffffffffffffffffffffffffffffffffff1673ffffffffffffffffffffffffffffffffffffffff168360405161186490613316565b60006040518083038185875af1925050503d80600081146118a1576040519150601f19603f3d011682016040523d82523d6000602084013e6118a6565b606091505b50509050806118ea576040517f08c379a00000000000000000000000000000000000000000000000000000000081526004016118e190613566565b60405180910390fd5b6118f5303387611da5565b6000600860008781526020019081526020016000209050338160000160006101000a81548173ffffffffffffffffffffffffffffffffffffffff021916908373ffffffffffffffffffffffffffffffffffffffff160217905550600a60008781526020019081526020016000206000808201600090556001820160006101000a81549073ffffffffffffffffffffffffffffffffffffffff02191690555050600c600087815260200190815260200160002060006101000a81549073ffffffffffffffffffffffffffffffffffffffff0219169055600b600087815260200190815260200160002060006101000a81549060ff02191690557f39cd056bcfc4b6e195eb99b09c74b00815a367bca4e86f70ecf2e0140401bd5e863433604051611a2093929190613716565b60405180910390a1505050505050565b6000600560008473ffffffffffffffffffffffffffffffffffffffff1673ffffffffffffffffffffffffffffffffffffffff16815260200190815260200160002060008373ffffffffffffffffffffffffffffffffffffffff1673ffffffffffffffffffffffffffffffffffffffff16815260200190815260200160002060009054906101000a900460ff16905092915050565b600a6020528060005260406000206000915090508060000154908060010160009054906101000a900473ffffffffffffffffffffffffffffffffffffffff16905082565b60007f01ffc9a7000000000000000000000000000000000000000000000000000000007bffffffffffffffffffffffffffffffffffffffffffffffffffffffff1916827bffffffffffffffffffffffffffffffffffffffffffffffffffffffff1916149050919050565b611b7b81612366565b611bba576040517f08c379a0000000000000000000000000000000000000000000000000000000008152600401611bb1906135e6565b60405180910390fd5b50565b600033905090565b816004600083815260200190815260200160002060006101000a81548173ffffffffffffffffffffffffffffffffffffffff021916908373ffffffffffffffffffffffffffffffffffffffff160217905550808273ffffffffffffffffffffffffffffffffffffffff16611c388361101f565b73ffffffffffffffffffffffffffffffffffffffff167f8c5be1e5ebec7d5bd14f71427d1e84f3dd0314c0f7b2291e5b200ac8c7c3b92560405160405180910390a45050565b611c988282604051806020016040528060008152506123a7565b5050565b611ca582612366565b611ce4576040517f08c379a0000000000000000000000000000000000000000000000000000000008152600401611cdb90613546565b60405180910390fd5b80600660008481526020019081526020016000209080519060200190611d0b929190612a11565b505050565b600080611d1c8361101f565b90508073ffffffffffffffffffffffffffffffffffffffff168473ffffffffffffffffffffffffffffffffffffffff161480611d5e5750611d5d8185611a30565b5b80611d9c57508373ffffffffffffffffffffffffffffffffffffffff16611d84846107f7565b73ffffffffffffffffffffffffffffffffffffffff16145b91505092915050565b8273ffffffffffffffffffffffffffffffffffffffff16611dc58261101f565b73ffffffffffffffffffffffffffffffffffffffff1614611e1b576040517f08c379a0000000000000000000000000000000000000000000000000000000008152600401611e1290613446565b60405180910390fd5b600073ffffffffffffffffffffffffffffffffffffffff168273ffffffffffffffffffffffffffffffffffffffff161415611e8b576040517f08c379a0000000000000000000000000000000000000000000000000000000008152600401611e82906134c6565b60405180910390fd5b611e988383836001612402565b8273ffffffffffffffffffffffffffffffffffffffff16611eb88261101f565b73ffffffffffffffffffffffffffffffffffffffff1614611f0e576040517f08c379a0000000000000000000000000000000000000000000000000000000008152600401611f0590613446565b60405180910390fd5b6004600082815260200190815260200160002060006101000a81549073ffffffffffffffffffffffffffffffffffffffff02191690556001600360008573ffffffffffffffffffffffffffffffffffffffff1673ffffffffffffffffffffffffffffffffffffffff168152602001908152602001600020600082825403925050819055506001600360008473ffffffffffffffffffffffffffffffffffffffff1673ffffffffffffffffffffffffffffffffffffffff16815260200190815260200160002060008282540192505081905550816002600083815260200190815260200160002060006101000a81548173ffffffffffffffffffffffffffffffffffffffff021916908373ffffffffffffffffffffffffffffffffffffffff160217905550808273ffffffffffffffffffffffffffffffffffffffff168473ffffffffffffffffffffffffffffffffffffffff167fddf252ad1be2c89b69c2b068fc378daa952ba7f163c4a11628f55a4df523b3ef60405160405180910390a461209a8383836001612408565b505050565b60006002600083815260200190815260200160002060009054906101000a900473ffffffffffffffffffffffffffffffffffffffff169050919050565b8173ffffffffffffffffffffffffffffffffffffffff168373ffffffffffffffffffffffffffffffffffffffff16141561214b576040517f08c379a0000000000000000000000000000000000000000000000000000000008152600401612142906134e6565b60405180910390fd5b80600560008573ffffffffffffffffffffffffffffffffffffffff1673ffffffffffffffffffffffffffffffffffffffff16815260200190815260200160002060008473ffffffffffffffffffffffffffffffffffffffff1673ffffffffffffffffffffffffffffffffffffffff16815260200190815260200160002060006101000a81548160ff0219169083151502179055508173ffffffffffffffffffffffffffffffffffffffff168373ffffffffffffffffffffffffffffffffffffffff167f17307eab39ab6107e8899845ad3d59bd9653f200f220920489ca2b5937696c318360405161223c91906133c9565b60405180910390a3505050565b612254848484611da5565b6122608484848461240e565b61229f576040517f08c379a000000000000000000000000000000000000000000000000000000000815260040161229690613426565b60405180910390fd5b50505050565b606060405180602001604052806000815250905090565b60606122c782611b72565b60006122d16122a5565b905060008151116122f1576040518060200160405280600081525061231c565b806122fb846125a5565b60405160200161230c9291906132f2565b6040516020818303038152906040525b915050919050565b600081836123329190613853565b905092915050565b600081836123489190613822565b905092915050565b6000818361235e91906138ad565b905092915050565b60008073ffffffffffffffffffffffffffffffffffffffff166123888361209f565b73ffffffffffffffffffffffffffffffffffffffff1614159050919050565b6123b1838361267d565b6123be600084848461240e565b6123fd576040517f08c379a00000000000000000000000000000000000000000000000000000000081526004016123f490613426565b60405180910390fd5b505050565b50505050565b50505050565b600061242f8473ffffffffffffffffffffffffffffffffffffffff1661289b565b15612598578373ffffffffffffffffffffffffffffffffffffffff1663150b7a02612458611bbd565b8786866040518563ffffffff1660e01b815260040161247a949392919061337d565b602060405180830381600087803b15801561249457600080fd5b505af19250505080156124c557506040513d601f19601f820116820180604052508101906124c29190612ded565b60015b612548573d80600081146124f5576040519150601f19603f3d011682016040523d82523d6000602084013e6124fa565b606091505b50600081511415612540576040517f08c379a000000000000000000000000000000000000000000000000000000000815260040161253790613426565b60405180910390fd5b805181602001fd5b63150b7a0260e01b7bffffffffffffffffffffffffffffffffffffffffffffffffffffffff1916817bffffffffffffffffffffffffffffffffffffffffffffffffffffffff19161491505061259d565b600190505b949350505050565b6060600060016125b4846128be565b01905060008167ffffffffffffffff8111156125d3576125d2613a87565b5b6040519080825280601f01601f1916602001820160405280156126055781602001600182028036833780820191505090505b509050600082602001820190505b600115612672578080600190039150507f3031323334353637383961626364656600000000000000000000000000000000600a86061a8153600a858161265c5761265b613a29565b5b049450600085141561266d57612672565b612613565b819350505050919050565b600073ffffffffffffffffffffffffffffffffffffffff168273ffffffffffffffffffffffffffffffffffffffff1614156126ed576040517f08c379a00000000000000000000000000000000000000000000000000000000081526004016126e490613586565b60405180910390fd5b6126f681612366565b15612736576040517f08c379a000000000000000000000000000000000000000000000000000000000815260040161272d90613466565b60405180910390fd5b612744600083836001612402565b61274d81612366565b1561278d576040517f08c379a000000000000000000000000000000000000000000000000000000000815260040161278490613466565b60405180910390fd5b6001600360008473ffffffffffffffffffffffffffffffffffffffff1673ffffffffffffffffffffffffffffffffffffffff16815260200190815260200160002060008282540192505081905550816002600083815260200190815260200160002060006101000a81548173ffffffffffffffffffffffffffffffffffffffff021916908373ffffffffffffffffffffffffffffffffffffffff160217905550808273ffffffffffffffffffffffffffffffffffffffff16600073ffffffffffffffffffffffffffffffffffffffff167fddf252ad1be2c89b69c2b068fc378daa952ba7f163c4a11628f55a4df523b3ef60405160405180910390a4612897600083836001612408565b5050565b6000808273ffffffffffffffffffffffffffffffffffffffff163b119050919050565b600080600090507a184f03e93ff9f4daa797ed6e38ed64bf6a1f010000000000000000831061291c577a184f03e93ff9f4daa797ed6e38ed64bf6a1f010000000000000000838161291257612911613a29565b5b0492506040810190505b6d04ee2d6d415b85acef81000000008310612959576d04ee2d6d415b85acef8100000000838161294f5761294e613a29565b5b0492506020810190505b662386f26fc10000831061298857662386f26fc10000838161297e5761297d613a29565b5b0492506010810190505b6305f5e10083106129b1576305f5e10083816129a7576129a6613a29565b5b0492506008810190505b61271083106129d65761271083816129cc576129cb613a29565b5b0492506004810190505b606483106129f957606483816129ef576129ee613a29565b5b0492506002810190505b600a8310612a08576001810190505b80915050919050565b828054612a1d90613997565b90600052602060002090601f016020900481019282612a3f5760008555612a86565b82601f10612a5857805160ff1916838001178555612a86565b82800160010185558215612a86579182015b82811115612a85578251825591602001919060010190612a6a565b5b509050612a939190612a97565b5090565b5b80821115612ab0576000816000905550600101612a98565b5090565b6000612ac7612ac284613772565b61374d565b905082815260208101848484011115612ae357612ae2613abb565b5b612aee848285613955565b509392505050565b6000612b09612b04846137a3565b61374d565b905082815260208101848484011115612b2557612b24613abb565b5b612b30848285613955565b509392505050565b600081359050612b4781614072565b92915050565b600081359050612b5c81614089565b92915050565b600081359050612b71816140a0565b92915050565b600081519050612b86816140a0565b92915050565b600082601f830112612ba157612ba0613ab6565b5b8135612bb1848260208601612ab4565b91505092915050565b600082601f830112612bcf57612bce613ab6565b5b8135612bdf848260208601612af6565b91505092915050565b600081359050612bf7816140b7565b92915050565b600060208284031215612c1357612c12613ac5565b5b6000612c2184828501612b38565b91505092915050565b60008060408385031215612c4157612c40613ac5565b5b6000612c4f85828601612b38565b9250506020612c6085828601612b38565b9150509250929050565b600080600060608486031215612c8357612c82613ac5565b5b6000612c9186828701612b38565b9350506020612ca286828701612b38565b9250506040612cb386828701612be8565b9150509250925092565b60008060008060808587031215612cd757612cd6613ac5565b5b6000612ce587828801612b38565b9450506020612cf687828801612b38565b9350506040612d0787828801612be8565b925050606085013567ffffffffffffffff811115612d2857612d27613ac0565b5b612d3487828801612b8c565b91505092959194509250565b60008060408385031215612d5757612d56613ac5565b5b6000612d6585828601612b38565b9250506020612d7685828601612b4d565b9150509250929050565b60008060408385031215612d9757612d96613ac5565b5b6000612da585828601612b38565b9250506020612db685828601612be8565b9150509250929050565b600060208284031215612dd657612dd5613ac5565b5b6000612de484828501612b62565b91505092915050565b600060208284031215612e0357612e02613ac5565b5b6000612e1184828501612b77565b91505092915050565b600060208284031215612e3057612e2f613ac5565b5b600082013567ffffffffffffffff811115612e4e57612e4d613ac0565b5b612e5a84828501612bba565b91505092915050565b60008060408385031215612e7a57612e79613ac5565b5b600083013567ffffffffffffffff811115612e9857612e97613ac0565b5b612ea485828601612bba565b9250506020612eb585828601612be8565b9150509250929050565b600060208284031215612ed557612ed4613ac5565b5b6000612ee384828501612be8565b91505092915050565b60008060408385031215612f0357612f02613ac5565b5b6000612f1185828601612be8565b9250506020612f2285828601612be8565b9150509250929050565b612f35816138e1565b82525050565b612f44816138f3565b82525050565b6000612f55826137d4565b612f5f81856137ea565b9350612f6f818560208601613964565b612f7881613aca565b840191505092915050565b6000612f8e826137df565b612f988185613806565b9350612fa8818560208601613964565b612fb181613aca565b840191505092915050565b6000612fc7826137df565b612fd18185613817565b9350612fe1818560208601613964565b80840191505092915050565b6000612ffa602d83613806565b915061300582613adb565b604082019050919050565b600061301d603283613806565b915061302882613b2a565b604082019050919050565b6000613040602583613806565b915061304b82613b79565b604082019050919050565b6000613063601c83613806565b915061306e82613bc8565b602082019050919050565b6000613086602283613806565b915061309182613bf1565b604082019050919050565b60006130a9603383613806565b91506130b482613c40565b604082019050919050565b60006130cc602483613806565b91506130d782613c8f565b604082019050919050565b60006130ef601983613806565b91506130fa82613cde565b602082019050919050565b6000613112602683613806565b915061311d82613d07565b604082019050919050565b6000613135602983613806565b915061314082613d56565b604082019050919050565b6000613158602e83613806565b915061316382613da5565b604082019050919050565b600061317b601383613806565b915061318682613df4565b602082019050919050565b600061319e602083613806565b91506131a982613e1d565b602082019050919050565b60006131c1603683613806565b91506131cc82613e46565b604082019050919050565b60006131e4603383613806565b91506131ef82613e95565b604082019050919050565b6000613207601883613806565b915061321282613ee4565b602082019050919050565b600061322a602183613806565b915061323582613f0d565b604082019050919050565b600061324d604283613806565b915061325882613f5c565b606082019050919050565b60006132706000836137fb565b915061327b82613fd1565b600082019050919050565b6000613293603d83613806565b915061329e82613fd4565b604082019050919050565b60006132b6602183613806565b91506132c182614023565b604082019050919050565b6132d58161394b565b82525050565b60006132e78284612fbc565b915081905092915050565b60006132fe8285612fbc565b915061330a8284612fbc565b91508190509392505050565b600061332182613263565b9150819050919050565b60006020820190506133406000830184612f2c565b92915050565b600060608201905061335b6000830186612f2c565b6133686020830185612f2c565b61337560408301846132cc565b949350505050565b60006080820190506133926000830187612f2c565b61339f6020830186612f2c565b6133ac60408301856132cc565b81810360608301526133be8184612f4a565b905095945050505050565b60006020820190506133de6000830184612f3b565b92915050565b600060208201905081810360008301526133fe8184612f83565b905092915050565b6000602082019050818103600083015261341f81612fed565b9050919050565b6000602082019050818103600083015261343f81613010565b9050919050565b6000602082019050818103600083015261345f81613033565b9050919050565b6000602082019050818103600083015261347f81613056565b9050919050565b6000602082019050818103600083015261349f81613079565b9050919050565b600060208201905081810360008301526134bf8161309c565b9050919050565b600060208201905081810360008301526134df816130bf565b9050919050565b600060208201905081810360008301526134ff816130e2565b9050919050565b6000602082019050818103600083015261351f81613105565b9050919050565b6000602082019050818103600083015261353f81613128565b9050919050565b6000602082019050818103600083015261355f8161314b565b9050919050565b6000602082019050818103600083015261357f8161316e565b9050919050565b6000602082019050818103600083015261359f81613191565b9050919050565b600060208201905081810360008301526135bf816131b4565b9050919050565b600060208201905081810360008301526135df816131d7565b9050919050565b600060208201905081810360008301526135ff816131fa565b9050919050565b6000602082019050818103600083015261361f8161321d565b9050919050565b6000602082019050818103600083015261363f81613240565b9050919050565b6000602082019050818103600083015261365f81613286565b9050919050565b6000602082019050818103600083015261367f816132a9565b9050919050565b600060208201905061369b60008301846132cc565b92915050565b60006040820190506136b660008301856132cc565b6136c36020830184612f2c565b9392505050565b60006080820190506136df60008301876132cc565b6136ec6020830186612f2c565b81810360408301526136fe8185612f83565b905061370d60608301846132cc565b95945050505050565b600060608201905061372b60008301866132cc565b61373860208301856132cc565b6137456040830184612f2c565b949350505050565b6000613757613768565b905061376382826139c9565b919050565b6000604051905090565b600067ffffffffffffffff82111561378d5761378c613a87565b5b61379682613aca565b9050602081019050919050565b600067ffffffffffffffff8211156137be576137bd613a87565b5b6137c782613aca565b9050602081019050919050565b600081519050919050565b600081519050919050565b600082825260208201905092915050565b600081905092915050565b600082825260208201905092915050565b600081905092915050565b600061382d8261394b565b91506138388361394b565b92508261384857613847613a29565b5b828204905092915050565b600061385e8261394b565b91506138698361394b565b9250817fffffffffffffffffffffffffffffffffffffffffffffffffffffffffffffffff04831182151516156138a2576138a16139fa565b5b828202905092915050565b60006138b88261394b565b91506138c38361394b565b9250828210156138d6576138d56139fa565b5b828203905092915050565b60006138ec8261392b565b9050919050565b60008115159050919050565b60007fffffffff0000000000000000000000000000000000000000000000000000000082169050919050565b600073ffffffffffffffffffffffffffffffffffffffff82169050919050565b6000819050919050565b82818337600083830152505050565b60005b83811015613982578082015181840152602081019050613967565b83811115613991576000848401525b50505050565b600060028204905060018216806139af57607f821691505b602082108114156139c3576139c2613a58565b5b50919050565b6139d282613aca565b810181811067ffffffffffffffff821117156139f1576139f0613a87565b5b80604052505050565b7f4e487b7100000000000000000000000000000000000000000000000000000000600052601160045260246000fd5b7f4e487b7100000000000000000000000000000000000000000000000000000000600052601260045260246000fd5b7f4e487b7100000000000000000000000000000000000000000000000000000000600052602260045260246000fd5b7f4e487b7100000000000000000000000000000000000000000000000000000000600052604160045260246000fd5b600080fd5b600080fd5b600080fd5b600080fd5b6000601f19601f8301169050919050565b7f4552433732313a2063616c6c6572206973206e6f7420746f6b656e206f776e6560008201527f72206f7220617070726f76656400000000000000000000000000000000000000602082015250565b7f4552433732313a207472616e7366657220746f206e6f6e20455243373231526560008201527f63656976657220696d706c656d656e7465720000000000000000000000000000602082015250565b7f4552433732313a207472616e736665722066726f6d20696e636f72726563742060008201527f6f776e6572000000000000000000000000000000000000000000000000000000602082015250565b7f4552433732313a20746f6b656e20616c7265616479206d696e74656400000000600082015250565b7f596f75206e65656420746f207061792074686520636f7272656374207072696360008201527f652e000000000000000000000000000000000000000000000000000000000000602082015250565b7f54686520746f6b656e206e6565647320746f206265206c697374656420696e2060008201527f6f7264657220746f20626520626f756768742e00000000000000000000000000602082015250565b7f4552433732313a207472616e7366657220746f20746865207a65726f2061646460008201527f7265737300000000000000000000000000000000000000000000000000000000602082015250565b7f4552433732313a20617070726f766520746f2063616c6c657200000000000000600082015250565b7f526f79616c74696573206d757374206265206265747765656e2031302520616e60008201527f64203235252e0000000000000000000000000000000000000000000000000000602082015250565b7f4552433732313a2061646472657373207a65726f206973206e6f74206120766160008201527f6c6964206f776e65720000000000000000000000000000000000000000000000602082015250565b7f45524337323155524953746f726167653a2055524920736574206f66206e6f6e60008201527f6578697374656e7420746f6b656e000000000000000000000000000000000000602082015250565b7f4661696c656420746f2073656e64204156415800000000000000000000000000600082015250565b7f4552433732313a206d696e7420746f20746865207a65726f2061646472657373600082015250565b7f4f6e6c7920746865206f776e6572206f662074686520746f6b656e206964206360008201527f616e2063616c6c20746869732066756e6374696f6e2e00000000000000000000602082015250565b7f54686973206d657461646174612068617320616c7265616479206265656e207560008201527f73656420746f206d696e7420616e204e46542e00000000000000000000000000602082015250565b7f4552433732313a20696e76616c696420746f6b656e2049440000000000000000600082015250565b7f4552433732313a20617070726f76616c20746f2063757272656e74206f776e6560008201527f7200000000000000000000000000000000000000000000000000000000000000602082015250565b7f4f6e6c79207468652061646472657373207468617420686173206c697374656460008201527f2074686520746f6b656e2063616e2063616e63656c20746865206c697374696e60208201527f672e000000000000000000000000000000000000000000000000000000000000604082015250565b50565b7f4552433732313a20617070726f76652063616c6c6572206973206e6f7420746f60008201527f6b656e206f776e6572206f7220617070726f76656420666f7220616c6c000000602082015250565b7f54686520746f6b656e2063616e206f6e6c79206265206c6973746564206f6e6360008201527f6500000000000000000000000000000000000000000000000000000000000000602082015250565b61407b816138e1565b811461408657600080fd5b50565b614092816138f3565b811461409d57600080fd5b50565b6140a9816138ff565b81146140b457600080fd5b50565b6140c08161394b565b81146140cb57600080fd5b5056fea2646970667358221220dac298346b21781ff423d758563259334558572a00e2401255166cfabf090d8e64736f6c63430008060033",
  "immutableReferences": {},
  "source": "// SPDX-License-Identifier: UNLICENSED\r\npragma solidity ^0.8.6;\r\n\r\nimport './Collectible.sol';\r\n\r\ncontract Marketplace is Collectible {\r\n    using SafeMath for uint256;\r\n\r\n    struct Listing {\r\n        uint256 price;\r\n        address owner;\r\n    }\r\n\r\n    // Mapping for a token id to Listing\r\n    mapping (uint256 => Listing) public tokenIdToListing;\r\n\r\n    // Mapping to prevent the same item being listed twice\r\n    mapping (uint256 => bool) public hasBeenListed;\r\n\r\n    // Mapping used for listing when the owner transfers the token to the contract and would then wish to cancel the listing\r\n    mapping (uint256 => address) public claimableByAccount;\r\n\r\n    /**\r\n     * @dev Emitted when a `tokenId` has been listed for a `price` by a `seller`\r\n    */\r\n    event ItemListed(uint256 tokenId, uint256 price, address seller);\r\n\r\n    /**\r\n     * @dev Emitted when a `tokenId` listing for a `price` has been cancelled by a `seller`\r\n    */\r\n    event ListingCancelled(uint256 tokenId, uint256 price, address seller);\r\n\r\n    /**\r\n     * @dev Emitted when a `tokenId` has been bought for a `price` by a `buyer`\r\n    */\r\n    event ItemBought(uint256 tokenId, uint256 price, address buyer);\r\n\r\n    modifier onlyTokenOwner(uint256 tokenId) {\r\n        require(\r\n            msg.sender == ownerOf(tokenId),\r\n            \"Only the owner of the token id can call this function.\"\r\n        );\r\n        _;\r\n    }\r\n\r\n    modifier onlyListingAccount(uint256 tokenId) {\r\n        require(\r\n            msg.sender == claimableByAccount[tokenId],\r\n            \"Only the address that has listed the token can cancel the listing.\"\r\n        );\r\n        _;\r\n    }\r\n\r\n    /**\r\n     * @dev list an item with a `tokenId` for a `price`\r\n     *\r\n     * Requirements:\r\n     * - Only the owner of the `tokenId` can list the item\r\n     * - The `tokenId` can only be listed once\r\n     *\r\n     * Emits a {Transfer} event - transfer the token to this smart contract.\r\n     * Emits a {ItemListed} event\r\n     */\r\n    function listItem(uint256 tokenId, uint256 price) public onlyTokenOwner(tokenId) {\r\n        require(!hasBeenListed[tokenId], \"The token can only be listed once\");\r\n        //send the token to the smart contract\r\n        _transfer(msg.sender, address(this), tokenId);\r\n        claimableByAccount[tokenId] = msg.sender;\r\n        tokenIdToListing[tokenId] = Listing(\r\n            price,\r\n            msg.sender\r\n        );\r\n        hasBeenListed[tokenId] = true;\r\n        emit ItemListed(tokenId, price, msg.sender);\r\n    }\r\n\r\n    /**\r\n     * @dev Cancel a listing of an item with a `tokenId`\r\n     *\r\n     * Requirements:\r\n     * - Only the account that has listed the `tokenId` can delist it\r\n     *\r\n     * Emits a {Transfer} event - transfer the token from this smart contract to the owner.\r\n     * Emits a {ListingCancelled} event.\r\n     */\r\n    function cancelListing(uint256 tokenId) public onlyListingAccount(tokenId) {\r\n        //send the token from the smart contract back to the one who listed it\r\n        _transfer(address(this), msg.sender, tokenId);\r\n        uint256 price = tokenIdToListing[tokenId].price;\r\n        delete claimableByAccount[tokenId];\r\n        delete tokenIdToListing[tokenId];\r\n        delete hasBeenListed[tokenId];\r\n        emit ListingCancelled(tokenId, price, msg.sender);\r\n    }\r\n\r\n    /**\r\n     * @dev Buy an item with a `tokenId` and pay the owner and the creator\r\n     *\r\n     * Requirements:\r\n     * - `tokenId` has to be listed\r\n     * - `price` needs to be the same as the value sent by the caller\r\n     *\r\n     * Emits a {Transfer} event - transfer the item from this smart contract to the buyer.\r\n     * Emits an {ItemBought} event.\r\n     */\r\n    function buyItem(uint256 tokenId) public payable {\r\n        require(hasBeenListed[tokenId], \"The token needs to be listed in order to be bought.\");\r\n        require(tokenIdToListing[tokenId].price == msg.value, \"You need to pay the correct price.\");\r\n\r\n        //split up the price between owner and creator\r\n        uint256 royaltyForCreator = tokenIdToItem[tokenId].royalty.mul(msg.value).div(100);\r\n        uint256 remainder = msg.value.sub(royaltyForCreator);\r\n        //send to creator\r\n        (bool isRoyaltySent, ) = tokenIdToItem[tokenId].creator.call{value: royaltyForCreator}(\"\");\r\n        require(isRoyaltySent, \"Failed to send AVAX\");\r\n        //send to owner\r\n        (bool isRemainderSent, ) = tokenIdToItem[tokenId].owner.call{value: remainder}(\"\");\r\n        require(isRemainderSent, \"Failed to send AVAX\");\r\n\r\n        //transfer the token from the smart contract back to the buyer\r\n        _transfer(address(this), msg.sender, tokenId);\r\n\r\n        //Modify the owner property of the item to be the buyer\r\n        Collectible.Item storage item = tokenIdToItem[tokenId];\r\n        item.owner = msg.sender;\r\n\r\n        //clean up\r\n        delete tokenIdToListing[tokenId];\r\n        delete claimableByAccount[tokenId];\r\n        delete hasBeenListed[tokenId];\r\n        emit ItemBought(tokenId, msg.value, msg.sender);\r\n    }\r\n\r\n    /**\r\n     * @dev return a listing of a `tokenId`\r\n     */\r\n    function getListing(uint256 tokenId) public view returns (uint256, address)\r\n    {\r\n        return (tokenIdToListing[tokenId].price, tokenIdToListing[tokenId].owner);\r\n    }\r\n\r\n}",
  "sourcePath": "C:\\Sergey\\Projects\\SmartContracts\\contracts\\Marketplace.sol",
  "compiler": {
    "name": "solc",
    "version": "0.8.6+commit.11564f7e.Emscripten.clang"
  },
  "schemaVersion": "3.4.13",
  "updatedAt": "2023-03-31T11:40:10.474Z",
  "networkType": "ethereum",
  "devdoc": {
    "events": {
      "ItemBought(uint256,uint256,address)": {
        "details": "Emitted when a `tokenId` has been bought for a `price` by a `buyer`"
      },
      "ItemListed(uint256,uint256,address)": {
        "details": "Emitted when a `tokenId` has been listed for a `price` by a `seller`"
      },
      "ListingCancelled(uint256,uint256,address)": {
        "details": "Emitted when a `tokenId` listing for a `price` has been cancelled by a `seller`"
      }
    },
    "kind": "dev",
    "methods": {
      "approve(address,uint256)": {
        "details": "See {IERC721-approve}."
      },
      "balanceOf(address)": {
        "details": "See {IERC721-balanceOf}."
      },
      "buyItem(uint256)": {
        "details": "Buy an item with a `tokenId` and pay the owner and the creator Requirements: - `tokenId` has to be listed - `price` needs to be the same as the value sent by the caller Emits a {Transfer} event - transfer the item from this smart contract to the buyer. Emits an {ItemBought} event."
      },
      "cancelListing(uint256)": {
        "details": "Cancel a listing of an item with a `tokenId` Requirements: - Only the account that has listed the `tokenId` can delist it Emits a {Transfer} event - transfer the token from this smart contract to the owner. Emits a {ListingCancelled} event."
      },
      "createCollectible(string,uint256)": {
        "details": "create a collectible with a `metadata` for the msg.sender Requirements: - `metadata` has not been minted before - `royalty` must be between 0% and 40% Emits a {Transfer} event - comes from the ERC-721 smart contract."
      },
      "getApproved(uint256)": {
        "details": "See {IERC721-getApproved}."
      },
      "getItem(uint256)": {
        "details": "return an item associated to a provided `tokenId`"
      },
      "getItemsLength()": {
        "details": "return the length of the items array"
      },
      "getListing(uint256)": {
        "details": "return a listing of a `tokenId`"
      },
      "isApprovedForAll(address,address)": {
        "details": "See {IERC721-isApprovedForAll}."
      },
      "listItem(uint256,uint256)": {
        "details": "list an item with a `tokenId` for a `price` Requirements: - Only the owner of the `tokenId` can list the item - The `tokenId` can only be listed once Emits a {Transfer} event - transfer the token to this smart contract. Emits a {ItemListed} event"
      },
      "name()": {
        "details": "See {IERC721Metadata-name}."
      },
      "ownerOf(uint256)": {
        "details": "See {IERC721-ownerOf}."
      },
      "safeTransferFrom(address,address,uint256)": {
        "details": "See {IERC721-safeTransferFrom}."
      },
      "safeTransferFrom(address,address,uint256,bytes)": {
        "details": "See {IERC721-safeTransferFrom}."
      },
      "setApprovalForAll(address,bool)": {
        "details": "See {IERC721-setApprovalForAll}."
      },
      "supportsInterface(bytes4)": {
        "details": "See {IERC165-supportsInterface}."
      },
      "symbol()": {
        "details": "See {IERC721Metadata-symbol}."
      },
      "tokenURI(uint256)": {
        "details": "See {IERC721Metadata-tokenURI}."
      },
      "transferFrom(address,address,uint256)": {
        "details": "See {IERC721-transferFrom}."
      }
    },
    "version": 1
  },
  "userdoc": {
    "kind": "user",
    "methods": {},
    "version": 1
  }
}